S1232400BD2529860BB78018BD2520B68018850126F98602C600CE2578BD24B5CE257CFF1B
S123242025FCCE2578E67CA67DF725FAB725FBE67A271DA67BF725F8B725F9BD24B58D4089
S1232440811626128D3AB726028D35B7260320EECE255E7E254B810226218D24B725FE8D32
S12324601FB725FF8D1AB726048D15FE25FEA70008FF25FE7A260426F020C3FE26026E0011
S1232480FE25FC8C25F82707A60008FF25FC39F625F8B625F9B125FB2607F125FA260220FE
S12324A0DACE2578E600A601F725F8B725F98D05CE257C20D33637FF2600BD2529FE2600A8
S12324C08605B726053332FE26003637BD2505868CB78018BD2520C680B680188502260604
S12324E0850126F52009B6801BA700085A26EAB68018850126F9841C27087A260526C67ED3
S12325002548333239F180192713F7801B8D11C61BF780188D0AF68018C50126F9B7801AED
S1232520080908090809080939F68018C4802713CE00000826FD0826FDF68018C4802703EE
S12325407E25487F801420D8CE2551BDE07E7EE1134449534B204552524F520D0A044E4F23
S11B256054204C494E4B45440D0A04CE2574FF254C7E24003F313F1FD2
S9030000FC
