S123F0007EF08C7EF0AC7EF0DE7EF0E67EF0FA7EF12E7EF153BDF3F8280139BDF364CC0087
S123F02000B7EFA3BDF224FC2405BDF28710CEC07F8EEF80108EF000C615A6A0A7805A26E5
S123F040F98EEF80108EDE0086153402A684E6A4A7A0E78035024A26F1CC8081FDEF96CC54
S123F0608283FDEF98CC0005FDEF9AFDEF9CFDEF9EFDEFA04FB7EFA2B7EFA3B7EFA486AAB4
S123F080B7EFE1CC0000FDCC0B7ECD007DEFA42609BDF16EBDEF807EF162BDF1828607C61F
S123F0A020FDE008BDF364BDF2FE201E7DEFA42609BDF16EBDEF837EF162BDF1828607C66A
S123F0C030FDE008BDF375BDF331BDF364270BC601F7E008F6E0091A01391CFE5F397DEFD4
S123F0E0A426F77EEF86A603108EEF966DA62B1E7FEFA48D79BDEF892068A603108EEF968F
S123F100E6A62B0A7FEFA48D65BDEF8C20547FEFA473EFA481042505C60F1A0139B7EFA242
S123F1208EEF96E686C47FF7EFA35F1CFE39A603108EEF966DA62B078D34BDEF8F2023BDC1
S123F140F38A8607B7E008B6E009854026DCC6801A0139A603108EEF966DA62BE28D0FBDBD
S123F160EF923415BEEFA7F6EFA6E70335953424108EEF96BFEFA7E603F7EFA6E6A5E70374
S123F18035A410830005260AF6EFA2108EEF9A58ECA534301F01FCEFFE3D1F02F6EFA34F91
S123F1A0BDFDA1B7EFE5F7EFE41F214FF6EFFF1F02CC0000BDFDA1C40FCAA0F7EFE61F2098
S123F1C05CF7EFE38601B7EFE235303410BDF3648EEFE28602E680FDE0084C810725F635E4
S123F1E090BDF3F8280139BDF491FCEFD78D35BDF8EC8E2400BDFC4EBDF8D4812E26107C67
S123F200EFD87DEFD826E37CEFD77CEFD820DB812C26107AEFD87DEFD826CF7AEFD77AEF50
S123F220D820C739BDF192C6208607FDE008BDF3641026022C8E2400BDF2FEBDF364102619
S123F240021F39BDF3F8280139BDF491BDF192C6308607FDE008BDF375102602048E240049
S123F260BDF331BDF364102601F78EF7AE7EF908BDF3F8280139BDF4918D0C8EF7B1BDF9E4
S123F28008BEEFC57EF986FDEFDF8E240010FFEFD98D2F5D27FBC10226118D1B8D243404D9
S123F2A08D20E7A035045A26F520E6C11626E28D0610BFEFC520DA8D0934048D0535021FBD
S123F2C002397DEFB82631FCEFDF260510FEEFD939BDF192C6208607FDE008BDF36410268E
S123F2E0017F8E2400BDF2FE86FCB7EFB88E2400EC84FDEFDF8E24047AEFB8E68039860062
S123F300B7E0085FB6E009A780B6E009A780B6E009A780B6E009A780B6E009A780B6E0096E
S123F320A780B6E009A780B6E009A780CB0826D4398600B7E0085FA680B7E009A680B7E009
S123F34009A680B7E009A680B7E009A680B7E009A680B7E009A680B7E009A680B7E009CB31
S123F3600826D4398D248607B7E008B6E009854027F98401398D138607B7E008B6E009853F
S123F3804027F9850827F58401398606B7E008B6E00B2BFB398EF736BDF467FCEFD5FDEFF8
S123F3A0FCF6EFD7F7EFFEF6EFD8F7EFFFB6EFFE3DBEEFFCBDFD68F7EFFB8602B7EFFABD9A
S123F3C0F44EFDEFF820058D2F280139FCEFFC8EF7618D18F6EFFE8EF76F8D0FF6EFFF8E69
S123F3E0F77D8D07F6EFFB5C8EF78B4FFDEFCABDF9088EEFCA7EFE0E8D5410B3EFF8260C64
S123F400FCEFF81083000027031CFD39CC0002B7EFE5B7EFE4F7EFE35AF7EFE286A0B7EF5C
S123F420E6BDF1CBBDF2278E24FA108EEFFAC606A680A7A05A26F98D15108300002706FD4F
S123F440EFF81CFD398EF7C5BDF9081A02398EEFFACC0000108E0006EB808900313F26F8A9
S123F460398EF6D47EF908BDF90ABDFE54FDEFD5BDFE54F7EFD7BDFE54F7EFD88EF799BD74
S123F480F908BDF8D4845F815926037EF8EC3264398EF70C8DD1F6EFD6F7EFA3FCEFD73999
S123F4A08EF6E68DC2F6EFD6F7EFA9FCEFD7FDEFAA398D3CBDF601F6E018C5102709FCEF59
S123F4C0AA8E2400BDF60126988E24007EFC4E8D1FBDF6ABF6E018C5102709FCEFAA8E249C
S123F4E000BDF6ABC55C1026FF778EF7AE7EF9088DAEF6EFA9C403F7E014F7EFB98608B7CC
S123F500E018BDF693BDF64EFCEFAA8E2400398D8FF6EFA9C403F7E014F7EFB98608B7E008
S123F52018BDF693BDF64EFCEFAAFD24008D0F8EF7B1BDF908BEEFC5BDF9867EF8EC8E2460
S123F54000BFEFDB10FFEFD98D3381022710811626F68D29B7EFC58D24B7EFC620EA8D1D28
S123F56034028D191F8935021F028D111F8927D834048D093504A7A05A26F520CBBEEFDB30
S123F5808C250026298E2400EC84108300002724FDEFAA8D6CF6E018C5102708FCEFAA8EC3
S123F5A024008D5DF6E0181026FEB68E2404A680BFEFDB3910FEEFD939B6E0188600B7E0E9
S123F5C0148E00003D301F26FBC60FF7E018BDF693F6E018C50126F98601B7E01ABDF6937D
S123F5E0C68CF7E018BDF6938EC000F6E018C5022705B6E01BA780F6E018C50126ED7EC074
S123F600008D5686887DE0192703BAEFBCB7E018BDF693B6E01484C02B0C27F7F6E018C505
S123F62010260AC51C39B6E01BA78020E67DE01927F1BFEFBA8EEFC134048D643504638411
S123F6408602A484A784B7EFBCBEEFBA20D53404F6E018C50126F93584B1E019270EB7E0D3
S123F6601B8D308618B7E0188D298DE2F7E01A8D2234047DE01927057DEFBC261DC10A2369
S123F6800AF6EFB9CA40F7E0142006F6EFB9F7E01435048D008D008D0039C11223ED20E11D
S123F6A0F6EFB9270530015A26FB398DAC86A87DE0192703BAEFBCB7E0188DD7E680B6E01C
S123F6C01484C02B0827F7BDF61CC55C39F7E01BE68020EA447269766520522F5720657209
S123F6E0726F720D0A04456E7465722044726976652C20547261636B202620536563746FDB
S123F700722028442C542C53293A2004456E74657220506172746974696F6E2C2054726116
S123F720636B202620536563746F722028502C542C53293A2004456E7465722043796C6954
S123F7406E646572732C204865616473202620536563746F72732028432C482C53293A200E
S123F760042043796C696E64657273203D200420202020204865616473203D2004202020CD
S123F780536563746F7273203D2004506172746974696F6E73203D20044F6B20746F207006
S123F7A0726F636565642028792F6E293F044F4B045472616E736665722061646472657393
S123F7C073203D20044472697665206E6F7420636F6E666967757265640D0A040D0A5054AA
S11CF7E036392D656D7520434853204D6F6E69746F722C2056332E3104EB
S105F7FE433191
S123F800F851F88AF8D4F8CEF8E2F8F9F90AF8ECF908F914F97FF97BF93DF952F986FDA13D
S123F820FD68FE54FE0EF3F88E0000B640003D300126F886038EE000A7048615A704A60573
S123F84010CEC6FF7FE0148EEF80C6806F805A26FB108EFF908EDFC0C610A6A0A7805A26C4
S123F860F9C60C6FE25A26FB8EF851AF6A86D0A7E41F4386FFB7DFE28EE004BFDFE08EFF40
S123F880FFBFDFE48EF7DCBDF9088EFF12BDF9088D3C845F34028D36845F1F8935028EFE74
S123F8A08210A384270930048CFF1227DD20F28D46AD980220D4BDF95229CF6E84BDF9526C
S123F8C029C8AD8420C41F343B7DDFE227068D04847F20253410BEDFE0A6844724FBA60154
S123F8E035903404E69FDFE0C501358434128EFF3A8D1735928D0086203414BEDFE0E6846A
S123F900575724FAA70135948DE2A680810427048DE720F6398DB234028130251B8139225C
S123F920048030201081612D0280208141250981462205803732613935021A02398DD629B5
S123F940F9484848481F898DCC29EF3404ABE01F89398DE929E434028DE3350229DC1F0148
S123F9603944444444840F8B308139238C8B072088A68434028DEA350220EA8DF430018DF2
S123F980F030017EF8F734061F108DE71F988DE335868DBE29241F12BDF8EC1F218DE7BD3B
S123F9A0F8F7A6A48DD98D952815810D270C812C2709812E2604312120DE39313F20D9A735
S123F9C0A4A1A427F1BDF8F78658BDF8F920E78EFF16BDF908AE4A8D231F318D1FAE488D5B
S123F9E01BAE448D17AE468D13A6418D0AA6428D06A6438D02A6C4BDF97320028D887EF80D
S123FA00F71F43AE4A301FAF4ABCDFE4260BB6DFE6A7848EFFFFBFDFE48DB47EF88A7FDF46
S123FA20E2327EBDF8C9815326F9BDF8C981392741813126EE6FE4BDF93DEBE4E7E48002F7
S123FA40A761BDF95229261F10EBE4E7E4ABE4A7E4BDF93D291CEBE4E7E46A612704A78071
S123FA6020EF6CE42607862ABDF8F920B6863FBDF8F9BDF8C9810D26F9326286FFB7DFE293
S123FA8039BDF95229646FE23410BDF8F7BDF95229563410AC62254E3001AFE4ECE4A3626E
S123FAA02706108300202302C620E764BDF8EC8653BDF8F98631BDF8F9CB031F98BDF973D1
S123FAC0AE62BDF986EB62EB63EB84A680BDF9736A6426F5531F98BDF973AF62ACE426BCDE
S123FAE08EFF85BDF9083262326339BDF952291F1F12BDF8F7BDF952291530013410BDF833
S123FB00F7BDF93D2907A7A010ACE426F93262398EFFFFBCDFE42708BEDFE4B6DFE6A78493
S123FB20BDF952290CBFDFE4A684B7DFE6863FA784398EFFFFBCDFE4270EBEDFE4B6DFE6F7
S123FB40A7848EFFFFBFDFE439327CBDF9522926AFE4BDF8F7BDF952291CAF62BDF8F7BD24
S123FB60F95229121F12AEE4A680AFE4AE62A780AF62313F26F03264397FEFCC7AEFCC3241
S123FB807A20057FEFCC327BBDF9522951BDF8F7AFE4BDF9522947BDF8F7AF627DEFCC2786
S123FBA013BDF9522938AF64AEE410AE8410AC64261F2012BDF93D2925A764BDF8F7AEE4BD
S123FBC0A684A164260BBDF8ECBDF986BDF8E2260D3001AC6227077DEFCC27E420CC7DEF12
S123FBE0CC27023261326539C601200AC6022006C6002002C603A6C53404BDF973BDF8F7A1
S123FC00BDF93D29053504A7C539326139C60A200AC6082006C6042002C606AEC53404BD07
S123FC20F986BDF8F7BDF95229053504AFC539326139BDF95229168D15BDF8ECBDF8D48119
S123FC402E27F4812C26063089FE0020EA3934108EFF3DBDF908C645862DBDF8F95A26FAD2
S123FC60351086103402BDF8ECBFEFCA8EEFCABDF97BBEEFCAC6103410BDF97F5A26FA3569
S123FC8010C610A684817E2E04811F2E02862EBDF8F930015A26EC35024A26C839BDF952A0
S123FCA0293E1F12BDF8F7A6A4BDF9731F89A6A43404A1E027121F89BDF8EC1F21BDF986E0
S123FCC0BDF8F71F98BDF973BDF8E227E1BDF8D4812E2604312120D4812C2604313F20CC1A
S123FCE039BDF9522912BDF8F7BDF93D290AA784BDF8E227F9BDF8D439BDF9522952BFEFDD
S123FD00CDBDF8F7BDF9522947BFEFCFBDF8F7CC0000FDEFD1FDEFD3BEEFCD8D27A780BC6C
S123FD20EFCF26F7BEEFCD8D1BA88426243001BCEFCF26F3862BBDF8F97CEFD1BDF8E2272F
S123FD40D77EF8D4BFEFD3B6EFD3BBEFD4BBEFD139B7EFD2BDF8EC8EEFD1BDF97FBDF97F82
S123FD60BDF97BBEEFD320C5BFEFACFDEFB0340886EF1F8BCC0000DDB4DDB696ADD6B13DA1
S123FD80DDB696ACD6B13DD3B5DDB596ADD6B03DD3B5DDB596ACD6B03DD3B4DDB49EB635E6
S123FDA088FDEFACBFEFAE10BFEFB2340886EF1F8BCC0000DDB0DDB4DDB697B88D45252411
S123FDC00DB02B1008B309B209B109B00CB820EC8D312510DCAE93B2DDAEDCACD2B192B0D4
S123FDE0DDAC0CB70DB8271404B006B106B206B30AB808B709B609B509B420D4DCB6109EE8
S123FE00AE3588DCAE93B2DCACD2B192B0397FEFC78604B7EFC8EC848EFE4C8D0C30027A64
S123FE20EFC826F71F987EF9657FEFC910A3842507A3847CEFC920F43402B6EFC926057D02
S123FE40EFC727067CEFC7BDF9653582271003E80064000A7FEFCA7FEFCBBDF8CE810D277E
S123FE601D8130251981392215840F3402FCEFCA8E000ABDFD6835043ABFEFCA20DCFCEF77
S123FE80CA394141FBE84142FBEC4343FBF04450FBF45043FC0D5553FC114958FC154959F3
S123FEA0FC194452F9CF4D44FC324D45F9924D46FAEB4D4CFA1E4D4DFB494D52FC9D4D5310
S123FEC0FA814D54FCF94D57FCE15342FB835357FB794252FB104258FB324550F8B645531A
S123FEE0F8BD474FF8C65246CD034642F5B9464CF50F4652F4B24657F4CF4842F015484309
S123FF00F3C74850F395484CF2704852F1E14857F2430D0A3E04205043202020535020207E
S123FF2020555320202049582020204959202041412041422044502043430D0A044164640F
S123FF4072202B30202B31202B32202B33202B34202B35202B36202B37202B38202B392010
S123FF602B41202B42202B43202B44202B45202B46207C2D2D2D2D204153434949202D2DF3
S123FF802D7C0D0A045339303330303030464304F8C8F8C8F8C8F8C8F8C8FA01FFFFFFFFA6
S117FFA06E9FDFC26E9FDFC46E9FDFC66E9FDFC86E9FDFCACF
S113FFF00000FFA0FFA4FFA8FFACFFB0F828F8287A
S50300807C
S903F828DC
